:100000000C9438000C946D040C946D040C946D04E5
:100010000C946D040C946D040C946D040C946D049C
:100020000C946D040C946D040C946D040C946D048C
:100030000C946D040C946D040C946D040C946D047C
:100040000C946D040C946D040C946D040C946D046C
:100050000C946D040C946D040C946D040C946D045C
:100060000C946D040C946D04010001410008E8003B
:1000700011241FBECFEFD8E0DEBFCDBFE8E6F0E031
:1000800040E017C0B591A59135912591059107FDE7
:100090000CC095918591EF01F92FE82F05900D92F5
:1000A000A217B307D9F7FE0104C01D92A217B30728
:1000B000E1F7EF36F40731F70E9462000C94400438
:0400C000F894FFCFE2
:1000C4000E94F8020E94C10280E091E00E94FC03B9
:1000D40060E081E00E94290480E30E94C60311E0ED
:1000E400D1E0C0E0C12CD12C7601812C912C54019B
:1000F4006894222421F8312C0E944B02082F882373
:10010400D9F38334C9F40E944B0480E091E00E9447
:10011400FC0360E081E00E94290480E30E94C6039E
:1001240011E0D1E0C0E0C32CD12CE12CF12C832CC4
:10013400912CA12CB12CE0CF80ED800F8A3008F0F7
:100144005EC0D13071F5112321F0832C912CA12CA8
:10015400B12C880C991CAA1CBB1CB501A401440F2A
:10016400551F661F771F440F551F661F771F840E88
:10017400951EA61EB71E880E911CA11CB11C60E022
:1001840081E00E9429048BE091E00E94FC0360E07E
:1001940081E00E942904C501B4010E94B20110E06B
:1001A400ABCF112321F0C32CD12CE12CF12CCC0C9E
:1001B400DD1CEE1CFF1CB701A601440F551F661F72
:1001C400771F440F551F661F771FC40ED51EE61EEA
:1001D400F71EC80ED11CE11CF11C60E081E00E94F6
:1001E40029048BE091E00E94FC0360E081E00E941E
:1001F4002904C701B6010E94B20110E07DCF802F0F
:100204008D7F8D3221F086ED800F823048F560E0DD
:1002140080E00E9429048BE091E00E94FC0360E0EE
:1002240080E00E942904C501B4010E94B20180E269
:100234000E94C603802F0E94C60360E081E00E94F2
:1002440029048BE091E00E94FC0360E081E00E94BD
:10025400290480E30E94C603C02F11E0D22D4CCFA5
:100264000D3309F049CFCC2309F446CFCB3249F002
:1002740018F4CA32A1F04EC0CD3251F0CF32C1F0E1
:1002840049C0240135014C0C5D1C6E1C7F1C46C00A
:10029400240135014C185D086E087F083FC0A50194
:1002A4009401C701B6010E94EC032B013C0136C046
:1002B400C114D104E104F10421F50E944B048CE142
:1002C40091E00E94FC032FE78AE196E021508040F0
:1002D4009040E1F700C000000E944B0480E091E0F0
:1002E4000E94FC0360E081E00E94290480E30E94F4
:1002F400C60311E0D1E0C0E0832C912CA12CB12CD9
:10030400FBCEC501B401A70196010E949B032901FC
:100314003A0104C0432C512C612C712C0E944B04D3
:10032400C501B4010E94B2018C2F0E94C603C7010B
:10033400B6010E94B2018DE30E94C60360E081E031
:100344000E942904C301B2010E94B2015301420177
:1003540011E0D1E0C0E0C32CD12CE12CF12CCCCEA7
:100364008F929F92AF92BF92EF92FF920F931F933F
:10037400CF93DF93CDB7DEB72C970FB6F894DEBFDB
:100384000FBECDBF611571058105910521F480E390
:100394000E94C6036DC099230CF062C090958095AD
:1003A400709561957F4F8F4F9F4F1616170618064D
:1003B400190644F501E001C000E020E00F2EFAE048
:1003C4008F2E912CA12CB12CF02D11E0120FEE24C4
:1003D400E394F12CEC0EFD1EE20EF11CA501940138
:1003E4000E949B03605DF7016083622F732F842F4B
:1003F400952F212F161617061806190634F3002315
:1004040041F001C010E0FE01E10FF11D8DE2818396
:100414001F5F812F8695C1F0E12FF0E09F012150ED
:10042400310941E050E04C0F5D1FE40FF51FDA0184
:100434008150281B3109240F351F8C9192919D9373
:100444008083E217F307C9F7E1E0F0E0EC0FFD1F4A
:10045400E10FF11D1082CE0101960E94FC0308C039
:1004640016161706180619060CF4A6CF10E0ECCFE2
:100474002C960FB6F894DEBF0FBECDBFDF91CF919F
:100484001F910F91FF90EF90BF90AF909F908F902E
:020494000895C9
:100496006F927F928F929F92AF92BF92CF92DF928E
:1004A600EF92FF920F931F93CF93DF930F2EFDE3EF
:1004B600AF2EF1E0BF2EF02DE12CF12C4701F50116
:1004C60061905F0140E0662D83E00E94400381EE6B
:1004D60094E00197F1F700C0000009E311E0C0E0E5
:1004E600D0E06E01F80171908F01672D83E00E94C4
:1004F6000B04811122C087E893E10197F1F700C050
:100506000000672D83E00E940B04811116C0672D41
:1005160083E00E940B048823D1F341E0662D83E03B
:100526000E944003F401EE0FFF1FEE0FFF1FE75D71
:10053600FE4FEC0DFD1D808112C02196C430D10501
:1005460081F641E0662D83E00E9440039FEFE91AA1
:10055600F90AE4E0EE16F10409F0B0CF80E0DF918D
:10056600CF911F910F91FF90EF90DF90CF90BF90AA
:0C057600AF909F908F907F906F90089541
:10058200EF92FF921F93CF93DF93CDE3D1E00F2E33
:10059200F1E4EF2EF1E0FF2EF02D199141E0612FF1
:1005A20083E00E941E0341E0612F83E00E9440032A
:1005B200EC16FD0691F7C9E3D1E00F2EFDE3EF2E15
:1005C200F1E0FF2EF02D199140E0612F83E00E94AF
:1005D2001E0341E0612F83E00E944003CE15DF0538
:0E05E20091F7DF91CF911F91FF90EF90089558
:1005F0006FEF81E00E94550441E060E082E00E94DC
:100600001E0341E061E082E00E941E0341E062E0DF
:1006100082E00E941E038FE097E20197F1F700C08D
:10062000000088E30E94B2038CE00E94B20381E0E4
:0C0630000E94B20386E00E94B20308950D
:10063C00CF93DF93D62FC42F0E948403FC01C130CB
:10064C0059F4218181E090E002C0880F991FDA955E
:10065C00E2F7822B81830BC0918121E030E002C054
:10066C00220F331FDA95E2F7209529232183DF919E
:04067C00CF9108957D
:10068000CF93DF93D62FC42F0E948403FC01C13087
:1006900059F4228181E090E002C0880F991FDA9519
:1006A000E2F7822B82830BC0928121E030E002C00E
:1006B000220F331FDA95E2F7209529232283DF9159
:0406C000CF91089539
:1006C400A1E21A2EAA1BBB1BFD010DC0AA1FBB1F52
:1006D400EE1FFF1FA217B307E407F50720F0A21BC4
:1006E400B30BE40BF50B661F771F881F991F1A9431
:1006F40069F760957095809590959B01AC01BD015B
:04070400CF01089584
:10070800813031F088F0823031F0833039F009C01F
:1007180083E290E0089586E290E008958FE190E00A
:0E072800089580E090E0089589E390E0089540
:10073600052E97FB1EF400940E94650457FD07D012
:100746000E94620307FC03D04EF40C946504509596
:0E0756004095309521953F4F4F4F5F4F0895CE
:10076400CF93C82F40E060E082E00E94400340E065
:1007740061E082E00E9440036C2F81E00E945D04EE
:080784000E94DA03CF910895F1
:10078C00CF93C82F41E060E082E00E94400340E03C
:10079C0061E082E00E9440036C2F81E00E945D04C6
:0807AC000E94DA03CF910895C9
:1007B40041E062E082E00E94400300C040E062E069
:1007C40082E00E94400383EF91E00197F1F700C0BB
:0407D4000000089584
:1007D800DB018F939F930E943504BF91AF91A29F35
:1007E800800D911DA39F900DB29F900D1124089527
:1007F800CF93DF93EC018881882331F021960E9402
:0E080800C60389918111FBCFDF91CF91089536
:10081600CF93C62F0E948403FC01808190E002C022
:0E08260095958795CA95E2F78170CF91089558
:10083400A29FB001B39FC001A39F700D811D11241D
:0E084400911DB29F700D811D1124911D08950C
:10085200811105C080E8860F0E94B203089580ECE2
:08086200860F0E94B203089505
:10086A000E941A04A59F900DB49F900DA49F800D1D
:06087A00911D11240895F8
:10088000EC010E9472040E947104CE010E94730464
:06089000CE010E946F047E
:1008960081E00E94B20383EF91E00197F1F700C077
:0408A60000000895B1
:1008AA00CF93C62F0E948403FC01C183CF91089580
:1008BA00CF93C62F0E948403FC01C283CF9108956F
:1008CA0090958095709561957F4F8F4F9F4F0895B2
:0408DA000C9400007A
:0408DE000E94600014
:0208E200089577
:0208E400089575
:0208E600089573
:1008E80043616C63756C61746F7200202020202056
:1008F8002020202020202020202020004572726FF8
:09090800723A204469762F300098
:100911003738392F3435362A3132332D43303D2B98
:0409210004050607BC
:0409250000010203C8
:00000001FF
