:100000000C9438000C9474040C9474040C947404D0
:100010000C9474040C9474040C9474040C94740480
:100020000C9474040C9474040C9474040C94740470
:100030000C9474040C9474040C9474040C94740460
:100040000C9474040C9474040C9474040C94740450
:100050000C9474040C9474040C9474040C94740440
:100060000C9474040C947404010001410008F6001F
:1000700011241FBECFEFD8E0DEBFCDBFE8E6F0E031
:1000800040E017C0B591A59135912591059107FDE7
:100090000CC095918591EF01F92FE82F05900D92F5
:1000A000A217B307D9F7FE0104C01D92A217B30728
:1000B000E1F7EF36F40731F70E9462000C94470431
:0400C000F894FFCFE2
:1000C4000E94FF020E94C80280E091E00E940304A3
:1000D40060E081E00E94300480E30E94CD0311E0DF
:1000E400D1E0C0E0C12CD12C7601812C912C54019B
:1000F4006894222421F8312C0E944B02082F882373
:10010400D9F38334C9F40E94520480E091E00E9440
:10011400030460E081E00E94300480E30E94CD0388
:1001240011E0D1E0C0E0C32CD12CE12CF12C832CC4
:10013400912CA12CB12CE0CF80ED800F8A3008F0F7
:100144005EC0D13071F5112321F0832C912CA12CA8
:10015400B12C880C991CAA1CBB1CB501A401440F2A
:10016400551F661F771F440F551F661F771F840E88
:10017400951EA61EB71E880E911CA11CB11C60E022
:1001840081E00E9430048BE091E00E94030460E06F
:1001940081E00E943004C501B4010E94B20110E064
:1001A400ABCF112321F0C32CD12CE12CF12CCC0C9E
:1001B400DD1CEE1CFF1CB701A601440F551F661F72
:1001C400771F440F551F661F771FC40ED51EE61EEA
:1001D400F71EC80ED11CE11CF11C60E081E00E94F6
:1001E40030048BE091E00E94030460E081E00E940F
:1001F4003004C701B6010E94B20110E07DCF802F08
:100204008D7F8D3221F086ED800F823048F560E0DD
:1002140080E00E9430048BE091E00E94030460E0DF
:1002240080E00E943004C501B4010E94B20180E262
:100234000E94CD03802F0E94CD0360E081E00E94E4
:1002440030048BE091E00E94030460E081E00E94AE
:10025400300480E30E94CD03C02F11E0D22D4CCF97
:100264000D3309F049CFCC2309F446CFCB3249F002
:1002740018F4CA32A1F04EC0CD3251F0CF32C1F0E1
:1002840049C0240135014C0C5D1C6E1C7F1C46C00A
:10029400240135014C185D086E087F083FC0A50194
:1002A4009401C701B6010E94F3032B013C0136C03F
:1002B400C114D104E104F10421F50E9452048CE13B
:1002C40091E00E9403042FE78AE196E021508040E8
:1002D4009040E1F700C000000E94520480E091E0E9
:1002E4000E94030460E081E00E94300480E30E94E5
:1002F400CD0311E0D1E0C0E0832C912CA12CB12CD2
:10030400FBCEC501B401A70196010E94A2032901F5
:100314003A0104C0432C512C612C712C0E945204CC
:10032400C501B4010E94B2018C2F0E94CD03C70104
:10033400B6010E94B2018DE30E94CD0360E081E02A
:100344000E943004C301B2010E94B2015301420170
:1003540011E0D1E0C0E0C32CD12CE12CF12CCCCEA7
:100364008F929F92AF92BF92EF92FF920F931F933F
:10037400CF93DF93CDB7DEB72C970FB6F894DEBFDB
:100384000FBECDBF611571058105910521F480E390
:100394000E94CD036DC099230CF062C090958095A6
:1003A400709561957F4F8F4F9F4F1616170618064D
:1003B400190644F501E001C000E020E00F2EFAE048
:1003C4008F2E912CA12CB12CF02D11E0120FEE24C4
:1003D400E394F12CEC0EFD1EE20EF11CA501940138
:1003E4000E94A203605DF7016083622F732F842F44
:1003F400952F212F161617061806190634F3002315
:1004040041F001C010E0FE01E10FF11D8DE2818396
:100414001F5F812F8695C1F0E12FF0E09F012150ED
:10042400310941E050E04C0F5D1FE40FF51FDA0184
:100434008150281B3109240F351F8C9192919D9373
:100444008083E217F307C9F7E1E0F0E0EC0FFD1F4A
:10045400E10FF11D1082CE0101960E94030408C031
:1004640016161706180619060CF4A6CF10E0ECCFE2
:100474002C960FB6F894DEBF0FBECDBFDF91CF919F
:100484001F910F91FF90EF90BF90AF909F908F902E
:020494000895C9
:100496006F927F928F929F92AF92BF92CF92DF928E
:1004A600EF92FF920F931F93CF93DF930F2EFDE3EF
:1004B600AF2EF1E0BF2EF02DE12CF12C4701F50116
:1004C60061905F0140E0662D83E00E94470383EF61
:1004D60091E00197F1F700C0000009E311E0C0E0E8
:1004E600D0E06E01F80171908F01672D83E00E94C4
:1004F6001204811129C087E893E10197F1F700C042
:100506000000672D83E00E94120481111DC0672D33
:1005160083E00E9412048823D1F3E3ECF9E03197DB
:10052600F1F700C0000041E0662D83E00E9447031A
:10053600C601880F991F880F991F875D9E4FFC0182
:10054600E80DF91D808112C02196C430D10549F607
:1005560041E0662D83E00E944703FFEFEF1AFF0A92
:1005660084E0E816F10409F0A9CF80E0DF91CF918D
:100576001F910F91FF90EF90DF90CF90BF90AF90BB
:0A0586009F908F907F906F90089572
:10059000EF92FF921F93CF93DF93CDE3D1E00F2E25
:1005A000F1E4EF2EF1E0FF2EF02D199141E0612FE3
:1005B00083E00E94250341E0612F83E00E9447030E
:1005C000EC16FD0691F7C9E3D1E00F2EFDE3EF2E07
:1005D000F1E0FF2EF02D199140E0612F83E00E94A1
:1005E000250341E0612F83E00E944703CE15DF051C
:0E05F00091F7DF91CF911F91FF90EF9008954A
:1005FE006FEF81E00E945C0441E060E082E00E94C7
:10060E00250341E061E082E00E94250341E062E0C3
:10061E0082E00E9425038FE097E20197F1F700C078
:10062E00000088E30E94B9038CE00E94B90381E0C8
:0C063E000E94B90386E00E94B9030895F1
:10064A00CF93DF93D62FC42F0E948B03FC01C130B6
:10065A0059F4218181E090E002C0880F991FDA9550
:10066A00E2F7822B81830BC0918121E030E002C046
:10067A00220F331FDA95E2F7209529232183DF9190
:04068A00CF9108956F
:10068E00CF93DF93D62FC42F0E948B03FC01C13072
:10069E0059F4228181E090E002C0880F991FDA950B
:1006AE00E2F7822B82830BC0928121E030E002C000
:1006BE00220F331FDA95E2F7209529232283DF914B
:0406CE00CF9108952B
:1006D200A1E21A2EAA1BBB1BFD010DC0AA1FBB1F44
:1006E200EE1FFF1FA217B307E407F50720F0A21BB6
:1006F200B30BE40BF50B661F771F881F991F1A9423
:1007020069F760957095809590959B01AC01BD014C
:04071200CF01089576
:10071600813031F088F0823031F0833039F009C011
:1007260083E290E0089586E290E0089589E290E001
:0E073600089580E090E0089580E290E008953C
:10074400052E97FB1EF400940E946C0457FD07D0FD
:100754000E94690307FC03D04EF40C946C0450957A
:0E0764004095309521953F4F4F4F5F4F0895C0
:10077200CF93C82F40E060E082E00E94470340E050
:1007820061E082E00E9447036C2F81E00E946404D2
:080792000E94E103CF910895DC
:10079A00CF93C82F41E060E082E00E94470340E027
:1007AA0061E082E00E9447036C2F81E00E946404AA
:0807BA000E94E103CF910895B4
:1007C20041E062E082E00E94470300C040E062E054
:1007D20082E00E94470383EF91E00197F1F700C0A6
:0407E2000000089576
:1007E600DB018F939F930E943C04BF91AF91A29F20
:1007F600800D911DA39F900DB29F900D1124089519
:10080600CF93DF93EC018881882331F021960E94F3
:0E081600CD0389918111FBCFDF91CF91089521
:10082400CF93C62F0E948B03FC01808190E002C00D
:0E08340095958795CA95E2F78170CF9108954A
:10084200A29FB001B39FC001A39F700D811D11240F
:0E085200911DB29F700D811D1124911D0895FE
:10086000811105C080E8860F0E94B903089580ECCD
:08087000860F0E94B9030895F0
:100878000E942104A59F900DB49F900DA49F800D08
:06088800911D11240895EA
:10088E00EC010E9479040E947804CE010E947A0441
:06089E00CE010E94760469
:1008A40081E00E94B90383EF91E00197F1F700C062
:0408B40000000895A3
:1008B800CF93C62F0E948B03FC01C183CF9108956B
:1008C800CF93C62F0E948B03FC01C283CF9108955A
:1008D80090958095709561957F4F8F4F9F4F0895A4
:0408E8000C9400006C
:0408EC000E94600006
:0208F000089569
:0208F200089567
:0208F400089565
:1008F60043616C63756C61746F7200202020202048
:100906002020202020202020202020004572726FE9
:09091600723A204469762F30008A
:10091F003738392F3435362A3132332D43303D2B8A
:04092F0000010203BE
:0409330004050607AA
:00000001FF
